{
  "contractName": "Exchange",
  "abi": [
    {
      "constant": true,
      "inputs": [
        {
          "name": "",
          "type": "bytes32"
        }
      ],
      "name": "getOrder",
      "outputs": [
        {
          "name": "buyer",
          "type": "address"
        },
        {
          "name": "seller",
          "type": "address"
        },
        {
          "name": "ethers",
          "type": "uint256"
        },
        {
          "name": "tokens",
          "type": "uint256"
        }
      ],
      "payable": false,
      "stateMutability": "view",
      "type": "function"
    },
    {
      "constant": true,
      "inputs": [
        {
          "name": "",
          "type": "uint256"
        }
      ],
      "name": "OrderBook",
      "outputs": [
        {
          "name": "",
          "type": "bytes32"
        }
      ],
      "payable": false,
      "stateMutability": "view",
      "type": "function"
    },
    {
      "inputs": [],
      "payable": false,
      "stateMutability": "nonpayable",
      "type": "constructor"
    },
    {
      "constant": true,
      "inputs": [
        {
          "name": "_user",
          "type": "address"
        }
      ],
      "name": "getBalance",
      "outputs": [
        {
          "name": "etherBalance",
          "type": "uint256"
        },
        {
          "name": "tokenbalance",
          "type": "uint256"
        }
      ],
      "payable": false,
      "stateMutability": "view",
      "type": "function"
    },
    {
      "constant": false,
      "inputs": [
        {
          "name": "_seller",
          "type": "address"
        },
        {
          "name": "_tokens",
          "type": "uint256"
        }
      ],
      "name": "createOrder",
      "outputs": [
        {
          "name": "orderID_",
          "type": "bytes32"
        }
      ],
      "payable": true,
      "stateMutability": "payable",
      "type": "function"
    },
    {
      "constant": true,
      "inputs": [
        {
          "name": "_orderID",
          "type": "bytes32"
        }
      ],
      "name": "viewOrder",
      "outputs": [
        {
          "name": "buyer",
          "type": "address"
        },
        {
          "name": "seller",
          "type": "address"
        },
        {
          "name": "ethers",
          "type": "uint256"
        },
        {
          "name": "tokens",
          "type": "uint256"
        }
      ],
      "payable": false,
      "stateMutability": "view",
      "type": "function"
    },
    {
      "constant": false,
      "inputs": [
        {
          "name": "_orderID",
          "type": "bytes32"
        },
        {
          "name": "_tokens",
          "type": "uint256"
        }
      ],
      "name": "acceptOrder",
      "outputs": [
        {
          "name": "success",
          "type": "bool"
        }
      ],
      "payable": false,
      "stateMutability": "nonpayable",
      "type": "function"
    },
    {
      "constant": false,
      "inputs": [
        {
          "name": "_orderID",
          "type": "bytes32"
        }
      ],
      "name": "cancelOrder",
      "outputs": [],
      "payable": false,
      "stateMutability": "nonpayable",
      "type": "function"
    }
  ],
  "bytecode": "0x608060405234801561001057600080fd5b50610f5f806100206000396000f300608060405260043610610083576000357c0100000000000000000000000000000000000000000000000000000000900463ffffffff1680630c1e4cfe146100885780635778472a1461013a5780636c16b545146101ec5780637489ec2314610248578063dbbcd53e14610279578063ef9bc914146102c2578063f8b2cb4f14610315575b600080fd5b34801561009457600080fd5b506100b76004803603810190808035600019169060200190929190505050610373565b604051808573ffffffffffffffffffffffffffffffffffffffff1673ffffffffffffffffffffffffffffffffffffffff1681526020018473ffffffffffffffffffffffffffffffffffffffff1673ffffffffffffffffffffffffffffffffffffffff16815260200183815260200182815260200194505050505060405180910390f35b34801561014657600080fd5b506101696004803603810190808035600019169060200190929190505050610440565b604051808573ffffffffffffffffffffffffffffffffffffffff1673ffffffffffffffffffffffffffffffffffffffff1681526020018473ffffffffffffffffffffffffffffffffffffffff1673ffffffffffffffffffffffffffffffffffffffff16815260200183815260200182815260200194505050505060405180910390f35b61022a600480360381019080803573ffffffffffffffffffffffffffffffffffffffff169060200190929190803590602001909291905050506104b0565b60405180826000191660001916815260200191505060405180910390f35b34801561025457600080fd5b506102776004803603810190808035600019169060200190929190505050610725565b005b34801561028557600080fd5b506102a4600480360381019080803590602001909291905050506108e7565b60405180826000191660001916815260200191505060405180910390f35b3480156102ce57600080fd5b506102fb60048036038101908080356000191690602001909291908035906020019092919050505061090a565b604051808215151515815260200191505060405180910390f35b34801561032157600080fd5b50610356600480360381019080803573ffffffffffffffffffffffffffffffffffffffff169060200190929190505050610dd0565b604051808381526020018281526020019250505060405180910390f35b600080600080600080866000191660001916815260200190815260200160002060000160009054906101000a900473ffffffffffffffffffffffffffffffffffffffff169350600080866000191660001916815260200190815260200160002060010160009054906101000a900473ffffffffffffffffffffffffffffffffffffffff169250600080866000191660001916815260200190815260200160002060020154915060008086600019166000191681526020019081526020016000206003015490509193509193565b60006020528060005260406000206000915090508060000160009054906101000a900473ffffffffffffffffffffffffffffffffffffffff16908060010160009054906101000a900473ffffffffffffffffffffffffffffffffffffffff16908060020154908060030154905084565b6000806000806104be610ede565b33935034925083878488604051602001808573ffffffffffffffffffffffffffffffffffffffff1673ffffffffffffffffffffffffffffffffffffffff166c010000000000000000000000000281526014018473ffffffffffffffffffffffffffffffffffffffff1673ffffffffffffffffffffffffffffffffffffffff166c010000000000000000000000000281526014018381526020018281526020019450505050506040516020818303038152906040526040518082805190602001908083835b6020831015156105a75780518252602082019150602081019050602083039250610582565b6001836020036101000a038019825116818451168082178552505050505050905001915050604051809103902091506080604051908101604052808573ffffffffffffffffffffffffffffffffffffffff1681526020018873ffffffffffffffffffffffffffffffffffffffff16815260200184815260200187815250905080600080846000191660001916815260200190815260200160002060008201518160000160006101000a81548173ffffffffffffffffffffffffffffffffffffffff021916908373ffffffffffffffffffffffffffffffffffffffff16021790555060208201518160010160006101000a81548173ffffffffffffffffffffffffffffffffffffffff021916908373ffffffffffffffffffffffffffffffffffffffff160217905550604082015181600201556060820151816003015590505081945060018290806001815401808255809150509060018203906000526020600020016000909192909190915090600019169055505050505092915050565b600080826000191660001916815260200190815260200160002060000160009054906101000a900473ffffffffffffffffffffffffffffffffffffffff1673ffffffffffffffffffffffffffffffffffffffff163373ffffffffffffffffffffffffffffffffffffffff16141515610805576040517f08c379a000000000000000000000000000000000000000000000000000000000815260040180806020018281038252600f8152602001807f496e636f7272656374206275796572000000000000000000000000000000000081525060200191505060405180910390fd5b3373ffffffffffffffffffffffffffffffffffffffff166108fc6000808460001916600019168152602001908152602001600020600201549081150290604051600060405180830381858888f19350505050158015610868573d6000803e3d6000fd5b506000808260001916600019168152602001908152602001600020600080820160006101000a81549073ffffffffffffffffffffffffffffffffffffffff02191690556001820160006101000a81549073ffffffffffffffffffffffffffffffffffffffff021916905560028201600090556003820160009055505050565b6001818154811015156108f657fe5b906000526020600020016000915090505481565b600080600080339250600080876000191660001916815260200190815260200160002060000160009054906101000a900473ffffffffffffffffffffffffffffffffffffffff1691506000808760001916600019168152602001908152602001600020600201549050600080876000191660001916815260200190815260200160002060010160009054906101000a900473ffffffffffffffffffffffffffffffffffffffff1673ffffffffffffffffffffffffffffffffffffffff168373ffffffffffffffffffffffffffffffffffffffff16141515610a53576040517f08c379a000000000000000000000000000000000000000000000000000000000815260040180806020018281038252601f8152602001807f596f7520617265206e6f742074686520696e74656e6465642073656c6c65720081525060200191505060405180910390fd5b60008087600019166000191681526020019081526020016000206003015485141515610ae7576040517f08c379a00000000000000000000000000000000000000000000000000000000081526004018080602001828103825260168152602001807f496e636f727265637420746f6b656e20616d6f756e740000000000000000000081525060200191505060405180910390fd5b739d2cc383e677292ed87f63586086cff62a00901073ffffffffffffffffffffffffffffffffffffffff1663095ea7b330876040518363ffffffff167c0100000000000000000000000000000000000000000000000000000000028152600401808373ffffffffffffffffffffffffffffffffffffffff1673ffffffffffffffffffffffffffffffffffffffff16815260200182815260200192505050602060405180830381600087803b158015610b9e57600080fd5b505af1158015610bb2573d6000803e3d6000fd5b505050506040513d6020811015610bc857600080fd5b810190808051906020019092919050505050739d2cc383e677292ed87f63586086cff62a00901073ffffffffffffffffffffffffffffffffffffffff166323b872dd8484886040518463ffffffff167c0100000000000000000000000000000000000000000000000000000000028152600401808473ffffffffffffffffffffffffffffffffffffffff1673ffffffffffffffffffffffffffffffffffffffff1681526020018373ffffffffffffffffffffffffffffffffffffffff1673ffffffffffffffffffffffffffffffffffffffff1681526020018281526020019350505050602060405180830381600087803b158015610cc557600080fd5b505af1158015610cd9573d6000803e3d6000fd5b505050506040513d6020811015610cef57600080fd5b8101908080519060200190929190505050508273ffffffffffffffffffffffffffffffffffffffff166108fc829081150290604051600060405180830381858888f19350505050158015610d47573d6000803e3d6000fd5b506000808760001916600019168152602001908152602001600020600080820160006101000a81549073ffffffffffffffffffffffffffffffffffffffff02191690556001820160006101000a81549073ffffffffffffffffffffffffffffffffffffffff02191690556002820160009055600382016000905550506001935050505092915050565b6000803373ffffffffffffffffffffffffffffffffffffffff16319150739d2cc383e677292ed87f63586086cff62a00901073ffffffffffffffffffffffffffffffffffffffff166370a08231846040518263ffffffff167c0100000000000000000000000000000000000000000000000000000000028152600401808273ffffffffffffffffffffffffffffffffffffffff1673ffffffffffffffffffffffffffffffffffffffff168152602001915050602060405180830381600087803b158015610e9c57600080fd5b505af1158015610eb0573d6000803e3d6000fd5b505050506040513d6020811015610ec657600080fd5b81019080805190602001909291905050509050915091565b608060405190810160405280600073ffffffffffffffffffffffffffffffffffffffff168152602001600073ffffffffffffffffffffffffffffffffffffffff168152602001600081526020016000815250905600a165627a7a723058202f3129ee683d74f13b4cfcd951fc0c91850269379924ceb3c632870b015cbb580029",
  "source": "pragma solidity ^0.4.23;\r\n\r\nlibrary SafeMath {\r\n\r\n    function add(uint a, uint b) internal pure returns (uint c) {\r\n        c = a + b;\r\n        require(c >= a);\r\n    }\r\n\r\n    function sub(uint a, uint b) internal pure returns (uint c) {\r\n        require(b <= a);\r\n        c = a - b;\r\n    }\r\n\r\n    function mul(uint a, uint b) internal pure returns (uint c) {\r\n        c = a * b;\r\n        require(a == 0 || c / a == b);\r\n    }\r\n\r\n    function div(uint a, uint b) internal pure returns (uint c) {\r\n        require(b > 0);\r\n        c = a / b;\r\n    }\r\n}\r\n\r\ncontract ERC20Interface {\r\n\r\n    function totalSupply() public constant returns (uint);\r\n\r\n    function balanceOf(address tokenOwner) public constant returns (uint balance);\r\n\r\n    function allowance(address tokenOwner, address spender) public constant returns (uint remaining);\r\n\r\n    function transfer(address to, uint tokens) public returns (bool success);\r\n\r\n    function approve(address spender, uint tokens) public returns (bool success);\r\n\r\n    function transferFrom(address from, address to, uint tokens) public returns (bool success);\r\n\r\n\r\n    event Transfer(address indexed from, address indexed to, uint tokens);\r\n\r\n    event Approval(address indexed tokenOwner, address indexed spender, uint tokens);\r\n\r\n}\r\n\r\ncontract Exchange {\r\n    using SafeMath for uint;\r\n    address constant ZEROxBTC_CONTRACT_ADDRESS = 0x9D2Cc383E677292ed87f63586086CfF62a009010;\r\n    //address user;\r\n    struct Order{\r\n        address buyer;\r\n        address seller;\r\n        uint ethers;\r\n        uint tokens;\r\n    }\r\n    mapping(bytes32 => Order) public getOrder; \r\n    bytes32 [] public OrderBook;\r\n    constructor () public {}\r\n    \r\n    // Check any account balance\r\n    function getBalance(address _user) public view returns (uint etherBalance, uint tokenbalance)\r\n    {\r\n        etherBalance = msg.sender.balance;\r\n        tokenbalance = ERC20Interface(ZEROxBTC_CONTRACT_ADDRESS).balanceOf(_user);\r\n    }\r\n    \r\n    // 0xBtc buyer creating new order     \r\n    function createOrder(address _seller, uint _tokens) public payable returns (bytes32 orderID_)\r\n    {\r\n        // Create Order\r\n        address _buyer = msg.sender;\r\n        uint _ethers = msg.value;\r\n        bytes32 orderID = keccak256(abi.encodePacked(_buyer, _seller, _ethers, _tokens));\r\n        Order memory newOrder = Order(_buyer, _seller, _ethers, _tokens);\r\n        getOrder[orderID] = newOrder;\r\n        \r\n        // Deposit Ether\r\n        // Done\r\n        orderID_ = orderID;\r\n        OrderBook.push(orderID);\r\n    }\r\n    \r\n    function viewOrder(bytes32 _orderID) public \r\n    view returns (address buyer, address seller, uint ethers, uint tokens)\r\n    {\r\n        buyer = getOrder[_orderID].buyer;\r\n        seller = getOrder[_orderID].seller;\r\n        ethers = getOrder[_orderID].ethers;\r\n        tokens =  getOrder[_orderID].tokens;\r\n    }\r\n    \r\n    \r\n    // 0xBc seller accepting order\r\n    function acceptOrder(bytes32 _orderID, uint _tokens) public returns (bool success)\r\n    {\r\n        address _seller = msg.sender;\r\n        address buyer = getOrder[_orderID].buyer;\r\n        uint ethers = getOrder[_orderID].ethers;\r\n        require(_seller == getOrder[_orderID].seller, \"You are not the intended seller\");\r\n        require(_tokens == getOrder[_orderID].tokens, \"Incorrect token amount\");\r\n        \r\n        // Swap eths -> seller, tokens -> buyer\r\n    \r\n        ERC20Interface(ZEROxBTC_CONTRACT_ADDRESS).approve(this, _tokens);\r\n        ERC20Interface(ZEROxBTC_CONTRACT_ADDRESS).transferFrom(_seller, buyer, _tokens);    \r\n        _seller.transfer(ethers);\r\n        delete getOrder[_orderID];\r\n        success = true;\r\n    }\r\n    \r\n    \r\n    function cancelOrder(bytes32 _orderID) public \r\n    {\r\n        // eths -> buyer\r\n        require(msg.sender == getOrder[_orderID].buyer, \"Incorrect buyer\");\r\n        msg.sender.transfer(getOrder[_orderID].ethers);\r\n        delete getOrder[_orderID];\r\n    }\r\n    \r\n}\r\n",
  "sourcePath": "C:\\Users\\Thinh\\Solidity\\dapp-boiler-plate\\truffle\\contracts\\Exchange.sol",
  "compiler": {
    "name": "solc",
    "version": "0.4.24+commit.e67f0147.Emscripten.clang"
  },
  "schemaVersion": "2.0.1",
  "updatedAt": "2018-11-12T12:11:29.472Z"
}