{
  "contractName": "MessageBoard",
  "abi": [
    {
      "constant": true,
      "inputs": [
        {
          "name": "",
          "type": "uint256"
        }
      ],
      "name": "allMessage",
      "outputs": [
        {
          "name": "title",
          "type": "string"
        },
        {
          "name": "content",
          "type": "string"
        }
      ],
      "payable": false,
      "stateMutability": "view",
      "type": "function"
    },
    {
      "payable": false,
      "stateMutability": "nonpayable",
      "type": "fallback"
    },
    {
      "constant": false,
      "inputs": [
        {
          "name": "_name",
          "type": "string"
        },
        {
          "name": "_age",
          "type": "uint256"
        }
      ],
      "name": "setProfile",
      "outputs": [
        {
          "name": "success",
          "type": "bool"
        }
      ],
      "payable": false,
      "stateMutability": "nonpayable",
      "type": "function"
    },
    {
      "constant": true,
      "inputs": [],
      "name": "getUser",
      "outputs": [
        {
          "components": [
            {
              "name": "name",
              "type": "string"
            },
            {
              "name": "age",
              "type": "uint256"
            }
          ],
          "name": "user",
          "type": "tuple"
        }
      ],
      "payable": false,
      "stateMutability": "view",
      "type": "function"
    },
    {
      "constant": false,
      "inputs": [
        {
          "name": "_title",
          "type": "string"
        },
        {
          "name": "_content",
          "type": "string"
        }
      ],
      "name": "postMessage",
      "outputs": [
        {
          "name": "success",
          "type": "bool"
        }
      ],
      "payable": false,
      "stateMutability": "nonpayable",
      "type": "function"
    },
    {
      "constant": true,
      "inputs": [],
      "name": "getMessage",
      "outputs": [
        {
          "components": [
            {
              "name": "title",
              "type": "string"
            },
            {
              "name": "content",
              "type": "string"
            }
          ],
          "name": "message_",
          "type": "tuple[]"
        }
      ],
      "payable": false,
      "stateMutability": "view",
      "type": "function"
    },
    {
      "constant": true,
      "inputs": [],
      "name": "getAllMessage",
      "outputs": [
        {
          "components": [
            {
              "name": "title",
              "type": "string"
            },
            {
              "name": "content",
              "type": "string"
            }
          ],
          "name": "allMessage_",
          "type": "tuple[]"
        }
      ],
      "payable": false,
      "stateMutability": "view",
      "type": "function"
    }
  ],
  "bytecode": "0x608060405234801561001057600080fd5b50610eba806100206000396000f300608060405260043610610078576000357c0100000000000000000000000000000000000000000000000000000000900463ffffffff16806349819eba1461008a578063625fc535146100c7578063832880e7146101045780638cd3b08b1461012f5780638f8586d21461016d578063ce6d41de14610198575b34801561008457600080fd5b50600080fd5b34801561009657600080fd5b506100b160048036036100ac9190810190610ac2565b6101c3565b6040516100be9190610d10565b60405180910390f35b3480156100d357600080fd5b506100ee60048036036100e99190810190610b2e565b610302565b6040516100fb9190610d10565b60405180910390f35b34801561011057600080fd5b50610119610397565b6040516101269190610d62565b60405180910390f35b34801561013b57600080fd5b5061015660048036036101519190810190610b82565b610499565b604051610164929190610d2b565b60405180910390f35b34801561017957600080fd5b506101826105fc565b60405161018f9190610cee565b60405180910390f35b3480156101a457600080fd5b506101ad61079f565b6040516101ba9190610cee565b60405180910390f35b60006101cd61097f565b604080519081016040528085815260200184815250905060028190806001815401808255809150509060018203906000526020600020906002020160009091929091909150600082015181600001908051906020019061022e929190610999565b50602082015181600101908051906020019061024b929190610999565b50505050600160003373ffffffffffffffffffffffffffffffffffffffff1673ffffffffffffffffffffffffffffffffffffffff168152602001908152602001600020819080600181540180825580915050906001820390600052602060002090600202016000909192909190915060008201518160000190805190602001906102d6929190610999565b5060208201518160010190805190602001906102f3929190610999565b50505050600191505092915050565b600061030c610a19565b6040805190810160405280858152602001848152509050806000803373ffffffffffffffffffffffffffffffffffffffff1673ffffffffffffffffffffffffffffffffffffffff168152602001908152602001600020600082015181600001908051906020019061037e929190610999565b5060208201518160010155905050600191505092915050565b61039f610a19565b6000803373ffffffffffffffffffffffffffffffffffffffff1673ffffffffffffffffffffffffffffffffffffffff168152602001908152602001600020604080519081016040529081600082018054600181600116156101000203166002900480601f0160208091040260200160405190810160405280929190818152602001828054600181600116156101000203166002900480156104815780601f1061045657610100808354040283529160200191610481565b820191906000526020600020905b81548152906001019060200180831161046457829003601f168201915b50505050508152602001600182015481525050905090565b6002818154811015156104a857fe5b9060005260206000209060020201600091509050806000018054600181600116156101000203166002900480601f0160208091040260200160405190810160405280929190818152602001828054600181600116156101000203166002900480156105545780601f1061052957610100808354040283529160200191610554565b820191906000526020600020905b81548152906001019060200180831161053757829003601f168201915b505050505090806001018054600181600116156101000203166002900480601f0160208091040260200160405190810160405280929190818152602001828054600181600116156101000203166002900480156105f25780601f106105c7576101008083540402835291602001916105f2565b820191906000526020600020905b8154815290600101906020018083116105d557829003601f168201915b5050505050905082565b60606002805480602002602001604051908101604052809291908181526020016000905b828210156107965783829060005260206000209060020201604080519081016040529081600082018054600181600116156101000203166002900480601f0160208091040260200160405190810160405280929190818152602001828054600181600116156101000203166002900480156106dc5780601f106106b1576101008083540402835291602001916106dc565b820191906000526020600020905b8154815290600101906020018083116106bf57829003601f168201915b50505050508152602001600182018054600181600116156101000203166002900480601f01602080910402602001604051908101604052809291908181526020018280546001816001161561010002031660029004801561077e5780601f106107535761010080835404028352916020019161077e565b820191906000526020600020905b81548152906001019060200180831161076157829003601f168201915b50505050508152505081526020019060010190610620565b50505050905090565b6060600160003373ffffffffffffffffffffffffffffffffffffffff1673ffffffffffffffffffffffffffffffffffffffff168152602001908152602001600020805480602002602001604051908101604052809291908181526020016000905b828210156109765783829060005260206000209060020201604080519081016040529081600082018054600181600116156101000203166002900480601f0160208091040260200160405190810160405280929190818152602001828054600181600116156101000203166002900480156108bc5780601f10610891576101008083540402835291602001916108bc565b820191906000526020600020905b81548152906001019060200180831161089f57829003601f168201915b50505050508152602001600182018054600181600116156101000203166002900480601f01602080910402602001604051908101604052809291908181526020018280546001816001161561010002031660029004801561095e5780601f106109335761010080835404028352916020019161095e565b820191906000526020600020905b81548152906001019060200180831161094157829003601f168201915b50505050508152505081526020019060010190610800565b50505050905090565b604080519081016040528060608152602001606081525090565b828054600181600116156101000203166002900490600052602060002090601f016020900481019282601f106109da57805160ff1916838001178555610a08565b82800160010185558215610a08579182015b82811115610a075782518255916020019190600101906109ec565b5b509050610a159190610a33565b5090565b604080519081016040528060608152602001600081525090565b610a5591905b80821115610a51576000816000905550600101610a39565b5090565b90565b600082601f8301121515610a6b57600080fd5b8135610a7e610a7982610db1565b610d84565b91508082526020830160208301858383011115610a9a57600080fd5b610aa5838284610e2d565b50505092915050565b6000610aba8235610e23565b905092915050565b60008060408385031215610ad557600080fd5b600083013567ffffffffffffffff811115610aef57600080fd5b610afb85828601610a58565b925050602083013567ffffffffffffffff811115610b1857600080fd5b610b2485828601610a58565b9150509250929050565b60008060408385031215610b4157600080fd5b600083013567ffffffffffffffff811115610b5b57600080fd5b610b6785828601610a58565b9250506020610b7885828601610aae565b9150509250929050565b600060208284031215610b9457600080fd5b6000610ba284828501610aae565b91505092915050565b6000610bb682610dea565b80845260208401935083602082028501610bcf85610ddd565b60005b84811015610c08578383038852610bea838351610c5e565b9250610bf582610e00565b9150602088019750600181019050610bd2565b508196508694505050505092915050565b610c2281610e0d565b82525050565b6000610c3382610df5565b808452610c47816020860160208601610e3c565b610c5081610e6f565b602085010191505092915050565b60006040830160008301518482036000860152610c7b8282610c28565b91505060208301518482036020860152610c958282610c28565b9150508091505092915050565b60006040830160008301518482036000860152610cbf8282610c28565b9150506020830151610cd46020860182610cdf565b508091505092915050565b610ce881610e19565b82525050565b60006020820190508181036000830152610d088184610bab565b905092915050565b6000602082019050610d256000830184610c19565b92915050565b60006040820190508181036000830152610d458185610c28565b90508181036020830152610d598184610c28565b90509392505050565b60006020820190508181036000830152610d7c8184610ca2565b905092915050565b6000604051905081810181811067ffffffffffffffff82111715610da757600080fd5b8060405250919050565b600067ffffffffffffffff821115610dc857600080fd5b601f19601f8301169050602081019050919050565b6000602082019050919050565b600081519050919050565b600081519050919050565b6000602082019050919050565b60008115159050919050565b6000819050919050565b6000819050919050565b82818337600083830152505050565b60005b83811015610e5a578082015181840152602081019050610e3f565b83811115610e69576000848401525b50505050565b6000601f19601f83011690509190505600a265627a7a7230582052fae21efc1786844fe5353266edcfcfab8b17c9e5eb6b0b688392987395e0a36c6578706572696d656e74616cf50037",
  "source": "pragma solidity ^0.4.23;\r\npragma experimental ABIEncoderV2;\r\n\r\n\r\ncontract MessageBoard {\r\n    struct User {\r\n        string name;\r\n        uint age;\r\n    \r\n    }\r\n    \r\n    struct Message {\r\n        string title;\r\n        string content;\r\n    }\r\n    \r\n    mapping (address => User) userInfo;\r\n    mapping (address => Message[]) userMessage;\r\n    \r\n    Message[] public allMessage;\r\n    \r\n    function () public {revert();}\r\n\r\n    function setProfile(string _name, uint _age) public \r\n        returns (bool success)\r\n    {\r\n        User memory newUser = User(_name, _age);\r\n        userInfo[msg.sender] = newUser;\r\n        success = true;\r\n    }\r\n    \r\n    function getUser() public view returns (User user) {\r\n        return userInfo[msg.sender];\r\n    }\r\n    \r\n    \r\n    function postMessage(string _title, string _content) public \r\n        returns (bool success)\r\n    {\r\n        Message memory newMessage = Message(_title, _content);\r\n        allMessage.push(newMessage);\r\n        userMessage[msg.sender].push(newMessage);\r\n        return true;\r\n    }\r\n    \r\n    function getMessage() public view returns (Message[] message_) {\r\n        return userMessage[msg.sender];\r\n    }\r\n    \r\n    function getAllMessage() public view returns (Message[] allMessage_) {\r\n        return allMessage;\r\n    }\r\n    \r\n}",
  "sourcePath": "C:\\Users\\Thinh\\Solidity\\dapp-boiler-plate\\truffle\\contracts\\MessageBoard.sol",
  "compiler": {
    "name": "solc",
    "version": "0.4.24+commit.e67f0147.Emscripten.clang"
  },
  "schemaVersion": "2.0.1",
  "updatedAt": "2018-11-10T16:42:48.504Z"
}